{
    "_format": "hh-sol-artifact-1",
    "contractName": "MyEpicNFT",
    "sourceName": "contracts/MyEpicNFT.sol",
    "abi": [
        {
            "inputs": [],
            "stateMutability": "nonpayable",
            "type": "constructor"
        },
        {
            "anonymous": false,
            "inputs": [
                {
                    "indexed": true,
                    "internalType": "address",
                    "name": "owner",
                    "type": "address"
                },
                {
                    "indexed": true,
                    "internalType": "address",
                    "name": "approved",
                    "type": "address"
                },
                {
                    "indexed": true,
                    "internalType": "uint256",
                    "name": "tokenId",
                    "type": "uint256"
                }
            ],
            "name": "Approval",
            "type": "event"
        },
        {
            "anonymous": false,
            "inputs": [
                {
                    "indexed": true,
                    "internalType": "address",
                    "name": "owner",
                    "type": "address"
                },
                {
                    "indexed": true,
                    "internalType": "address",
                    "name": "operator",
                    "type": "address"
                },
                {
                    "indexed": false,
                    "internalType": "bool",
                    "name": "approved",
                    "type": "bool"
                }
            ],
            "name": "ApprovalForAll",
            "type": "event"
        },
        {
            "anonymous": false,
            "inputs": [
                {
                    "indexed": true,
                    "internalType": "address",
                    "name": "from",
                    "type": "address"
                },
                {
                    "indexed": true,
                    "internalType": "address",
                    "name": "to",
                    "type": "address"
                },
                {
                    "indexed": true,
                    "internalType": "uint256",
                    "name": "tokenId",
                    "type": "uint256"
                }
            ],
            "name": "Transfer",
            "type": "event"
        },
        {
            "inputs": [
                {
                    "internalType": "address",
                    "name": "to",
                    "type": "address"
                },
                {
                    "internalType": "uint256",
                    "name": "tokenId",
                    "type": "uint256"
                }
            ],
            "name": "approve",
            "outputs": [],
            "stateMutability": "nonpayable",
            "type": "function"
        },
        {
            "inputs": [
                {
                    "internalType": "address",
                    "name": "owner",
                    "type": "address"
                }
            ],
            "name": "balanceOf",
            "outputs": [
                {
                    "internalType": "uint256",
                    "name": "",
                    "type": "uint256"
                }
            ],
            "stateMutability": "view",
            "type": "function"
        },
        {
            "inputs": [
                {
                    "internalType": "uint256",
                    "name": "tokenId",
                    "type": "uint256"
                }
            ],
            "name": "getApproved",
            "outputs": [
                {
                    "internalType": "address",
                    "name": "",
                    "type": "address"
                }
            ],
            "stateMutability": "view",
            "type": "function"
        },
        {
            "inputs": [
                {
                    "internalType": "address",
                    "name": "owner",
                    "type": "address"
                },
                {
                    "internalType": "address",
                    "name": "operator",
                    "type": "address"
                }
            ],
            "name": "isApprovedForAll",
            "outputs": [
                {
                    "internalType": "bool",
                    "name": "",
                    "type": "bool"
                }
            ],
            "stateMutability": "view",
            "type": "function"
        },
        {
            "inputs": [
                {
                    "internalType": "string",
                    "name": "_metadata",
                    "type": "string"
                },
                {
                    "internalType": "address",
                    "name": "_send_to",
                    "type": "address"
                }
            ],
            "name": "makeAnEpicNFT",
            "outputs": [],
            "stateMutability": "nonpayable",
            "type": "function"
        },
        {
            "inputs": [],
            "name": "name",
            "outputs": [
                {
                    "internalType": "string",
                    "name": "",
                    "type": "string"
                }
            ],
            "stateMutability": "view",
            "type": "function"
        },
        {
            "inputs": [
                {
                    "internalType": "uint256",
                    "name": "tokenId",
                    "type": "uint256"
                }
            ],
            "name": "ownerOf",
            "outputs": [
                {
                    "internalType": "address",
                    "name": "",
                    "type": "address"
                }
            ],
            "stateMutability": "view",
            "type": "function"
        },
        {
            "inputs": [
                {
                    "internalType": "address",
                    "name": "from",
                    "type": "address"
                },
                {
                    "internalType": "address",
                    "name": "to",
                    "type": "address"
                },
                {
                    "internalType": "uint256",
                    "name": "tokenId",
                    "type": "uint256"
                }
            ],
            "name": "safeTransferFrom",
            "outputs": [],
            "stateMutability": "nonpayable",
            "type": "function"
        },
        {
            "inputs": [
                {
                    "internalType": "address",
                    "name": "from",
                    "type": "address"
                },
                {
                    "internalType": "address",
                    "name": "to",
                    "type": "address"
                },
                {
                    "internalType": "uint256",
                    "name": "tokenId",
                    "type": "uint256"
                },
                {
                    "internalType": "bytes",
                    "name": "_data",
                    "type": "bytes"
                }
            ],
            "name": "safeTransferFrom",
            "outputs": [],
            "stateMutability": "nonpayable",
            "type": "function"
        },
        {
            "inputs": [
                {
                    "internalType": "address",
                    "name": "operator",
                    "type": "address"
                },
                {
                    "internalType": "bool",
                    "name": "approved",
                    "type": "bool"
                }
            ],
            "name": "setApprovalForAll",
            "outputs": [],
            "stateMutability": "nonpayable",
            "type": "function"
        },
        {
            "inputs": [
                {
                    "internalType": "bytes4",
                    "name": "interfaceId",
                    "type": "bytes4"
                }
            ],
            "name": "supportsInterface",
            "outputs": [
                {
                    "internalType": "bool",
                    "name": "",
                    "type": "bool"
                }
            ],
            "stateMutability": "view",
            "type": "function"
        },
        {
            "inputs": [],
            "name": "symbol",
            "outputs": [
                {
                    "internalType": "string",
                    "name": "",
                    "type": "string"
                }
            ],
            "stateMutability": "view",
            "type": "function"
        },
        {
            "inputs": [
                {
                    "internalType": "uint256",
                    "name": "tokenId",
                    "type": "uint256"
                }
            ],
            "name": "tokenURI",
            "outputs": [
                {
                    "internalType": "string",
                    "name": "",
                    "type": "string"
                }
            ],
            "stateMutability": "view",
            "type": "function"
        },
        {
            "inputs": [
                {
                    "internalType": "address",
                    "name": "from",
                    "type": "address"
                },
                {
                    "internalType": "address",
                    "name": "to",
                    "type": "address"
                },
                {
                    "internalType": "uint256",
                    "name": "tokenId",
                    "type": "uint256"
                }
            ],
            "name": "transferFrom",
            "outputs": [],
            "stateMutability": "nonpayable",
            "type": "function"
        }
    ],
    "bytecode": "0x60806040523480156200001157600080fd5b506040518060400160405280601581526020017f506f6e646f63204368726973746d6173204e46547300000000000000000000008152506040518060400160405280600e81526020017f504f4e444f4348524953544d4153000000000000000000000000000000000000815250816000908051906020019062000096929190620001b3565b508060019080519060200190620000af929190620001b3565b505050620000e16040518060600160405280602b81526020016200306c602b9139620000e760201b62000b321760201c565b62000390565b6200018781604051602401620000fe9190620002a4565b6040516020818303038152906040527f41304fac000000000000000000000000000000000000000000000000000000007bffffffffffffffffffffffffffffffffffffffffffffffffffffffff19166020820180517bffffffffffffffffffffffffffffffffffffffffffffffffffffffff83818316178352505050506200018a60201b60201c565b50565b60008151905060006a636f6e736f6c652e6c6f679050602083016000808483855afa5050505050565b828054620001c1906200031a565b90600052602060002090601f016020900481019282620001e5576000855562000231565b82601f106200020057805160ff191683800117855562000231565b8280016001018555821562000231579182015b828111156200023057825182559160200191906001019062000213565b5b50905062000240919062000244565b5090565b5b808211156200025f57600081600090555060010162000245565b5090565b60006200027082620002c8565b6200027c8185620002d3565b93506200028e818560208601620002e4565b62000299816200037f565b840191505092915050565b60006020820190508181036000830152620002c0818462000263565b905092915050565b600081519050919050565b600082825260208201905092915050565b60005b8381101562000304578082015181840152602081019050620002e7565b8381111562000314576000848401525b50505050565b600060028204905060018216806200033357607f821691505b602082108114156200034a576200034962000350565b5b50919050565b7f4e487b7100000000000000000000000000000000000000000000000000000000600052602260045260246000fd5b6000601f19601f8301169050919050565b612ccc80620003a06000396000f3fe608060405234801561001057600080fd5b50600436106100ea5760003560e01c806370a082311161008c578063a22cb46511610066578063a22cb4651461025b578063b88d4fde14610277578063c87b56dd14610293578063e985e9c5146102c3576100ea565b806370a08231146101f157806395d89b4114610221578063a001faf31461023f576100ea565b8063095ea7b3116100c8578063095ea7b31461016d57806323b872dd1461018957806342842e0e146101a55780636352211e146101c1576100ea565b806301ffc9a7146100ef57806306fdde031461011f578063081812fc1461013d575b600080fd5b61010960048036038101906101049190611da9565b6102f3565b60405161011691906125c1565b60405180910390f35b6101276103d5565b60405161013491906125dc565b60405180910390f35b61015760048036038101906101529190611e4f565b610467565b604051610164919061255a565b60405180910390f35b61018760048036038101906101829190611d6d565b6104ec565b005b6101a3600480360381019061019e9190611c67565b610604565b005b6101bf60048036038101906101ba9190611c67565b610664565b005b6101db60048036038101906101d69190611e4f565b610684565b6040516101e8919061255a565b60405180910390f35b61020b60048036038101906102069190611c02565b610736565b604051610218919061283c565b60405180910390f35b6102296107ee565b60405161023691906125dc565b60405180910390f35b61025960048036038101906102549190611dfb565b610880565b005b61027560048036038101906102709190611d31565b6108d4565b005b610291600480360381019061028c9190611cb6565b6108ea565b005b6102ad60048036038101906102a89190611e4f565b61094c565b6040516102ba91906125dc565b60405180910390f35b6102dd60048036038101906102d89190611c2b565b610a9e565b6040516102ea91906125c1565b60405180910390f35b60007f80ac58cd000000000000000000000000000000000000000000000000000000007bffffffffffffffffffffffffffffffffffffffffffffffffffffffff1916827bffffffffffffffffffffffffffffffffffffffffffffffffffffffff191614806103be57507f5b5e139f000000000000000000000000000000000000000000000000000000007bffffffffffffffffffffffffffffffffffffffffffffffffffffffff1916827bffffffffffffffffffffffffffffffffffffffffffffffffffffffff1916145b806103ce57506103cd82610bcb565b5b9050919050565b6060600080546103e490612a9c565b80601f016020809104026020016040519081016040528092919081815260200182805461041090612a9c565b801561045d5780601f106104325761010080835404028352916020019161045d565b820191906000526020600020905b81548152906001019060200180831161044057829003601f168201915b5050505050905090565b600061047282610c35565b6104b1576040517f08c379a00000000000000000000000000000000000000000000000000000000081526004016104a89061279c565b60405180910390fd5b6004600083815260200190815260200160002060009054906101000a900473ffffffffffffffffffffffffffffffffffffffff169050919050565b60006104f782610684565b90508073ffffffffffffffffffffffffffffffffffffffff168373ffffffffffffffffffffffffffffffffffffffff161415610568576040517f08c379a000000000000000000000000000000000000000000000000000000000815260040161055f906127fc565b60405180910390fd5b8073ffffffffffffffffffffffffffffffffffffffff16610587610ca1565b73ffffffffffffffffffffffffffffffffffffffff1614806105b657506105b5816105b0610ca1565b610a9e565b5b6105f5576040517f08c379a00000000000000000000000000000000000000000000000000000000081526004016105ec906126dc565b60405180910390fd5b6105ff8383610ca9565b505050565b61061561060f610ca1565b82610d62565b610654576040517f08c379a000000000000000000000000000000000000000000000000000000000815260040161064b9061281c565b60405180910390fd5b61065f838383610e40565b505050565b61067f838383604051806020016040528060008152506108ea565b505050565b6000806002600084815260200190815260200160002060009054906101000a900473ffffffffffffffffffffffffffffffffffffffff169050600073ffffffffffffffffffffffffffffffffffffffff168173ffffffffffffffffffffffffffffffffffffffff16141561072d576040517f08c379a00000000000000000000000000000000000000000000000000000000081526004016107249061271c565b60405180910390fd5b80915050919050565b60008073ffffffffffffffffffffffffffffffffffffffff168273ffffffffffffffffffffffffffffffffffffffff1614156107a7576040517f08c379a000000000000000000000000000000000000000000000000000000000815260040161079e906126fc565b60405180910390fd5b600360008373ffffffffffffffffffffffffffffffffffffffff1673ffffffffffffffffffffffffffffffffffffffff168152602001908152602001600020549050919050565b6060600180546107fd90612a9c565b80601f016020809104026020016040519081016040528092919081815260200182805461082990612a9c565b80156108765780601f1061084b57610100808354040283529160200191610876565b820191906000526020600020905b81548152906001019060200180831161085957829003601f168201915b5050505050905090565b600061088c600761109c565b905061089882826110aa565b6108a281846110c8565b6108c5604051806060016040528060258152602001612c7260259139823361113c565b6108cf60076111db565b505050565b6108e66108df610ca1565b83836111f1565b5050565b6108fb6108f5610ca1565b83610d62565b61093a576040517f08c379a00000000000000000000000000000000000000000000000000000000081526004016109319061281c565b60405180910390fd5b6109468484848461135e565b50505050565b606061095782610c35565b610996576040517f08c379a000000000000000000000000000000000000000000000000000000000815260040161098d9061277c565b60405180910390fd5b60006006600084815260200190815260200160002080546109b690612a9c565b80601f01602080910402602001604051908101604052809291908181526020018280546109e290612a9c565b8015610a2f5780601f10610a0457610100808354040283529160200191610a2f565b820191906000526020600020905b815481529060010190602001808311610a1257829003601f168201915b505050505090506000610a406113ba565b9050600081511415610a56578192505050610a99565b600082511115610a8b578082604051602001610a73929190612536565b60405160208183030381529060405292505050610a99565b610a94846113d1565b925050505b919050565b6000600560008473ffffffffffffffffffffffffffffffffffffffff1673ffffffffffffffffffffffffffffffffffffffff16815260200190815260200160002060008373ffffffffffffffffffffffffffffffffffffffff1673ffffffffffffffffffffffffffffffffffffffff16815260200190815260200160002060009054906101000a900460ff16905092915050565b610bc881604051602401610b4691906125dc565b6040516020818303038152906040527f41304fac000000000000000000000000000000000000000000000000000000007bffffffffffffffffffffffffffffffffffffffffffffffffffffffff19166020820180517bffffffffffffffffffffffffffffffffffffffffffffffffffffffff8381831617835250505050611478565b50565b60007f01ffc9a7000000000000000000000000000000000000000000000000000000007bffffffffffffffffffffffffffffffffffffffffffffffffffffffff1916827bffffffffffffffffffffffffffffffffffffffffffffffffffffffff1916149050919050565b60008073ffffffffffffffffffffffffffffffffffffffff166002600084815260200190815260200160002060009054906101000a900473ffffffffffffffffffffffffffffffffffffffff1673ffffffffffffffffffffffffffffffffffffffff1614159050919050565b600033905090565b816004600083815260200190815260200160002060006101000a81548173ffffffffffffffffffffffffffffffffffffffff021916908373ffffffffffffffffffffffffffffffffffffffff160217905550808273ffffffffffffffffffffffffffffffffffffffff16610d1c83610684565b73ffffffffffffffffffffffffffffffffffffffff167f8c5be1e5ebec7d5bd14f71427d1e84f3dd0314c0f7b2291e5b200ac8c7c3b92560405160405180910390a45050565b6000610d6d82610c35565b610dac576040517f08c379a0000000000000000000000000000000000000000000000000000000008152600401610da3906126bc565b60405180910390fd5b6000610db783610684565b90508073ffffffffffffffffffffffffffffffffffffffff168473ffffffffffffffffffffffffffffffffffffffff161480610e2657508373ffffffffffffffffffffffffffffffffffffffff16610e0e84610467565b73ffffffffffffffffffffffffffffffffffffffff16145b80610e375750610e368185610a9e565b5b91505092915050565b8273ffffffffffffffffffffffffffffffffffffffff16610e6082610684565b73ffffffffffffffffffffffffffffffffffffffff1614610eb6576040517f08c379a0000000000000000000000000000000000000000000000000000000008152600401610ead906127bc565b60405180910390fd5b600073ffffffffffffffffffffffffffffffffffffffff168273ffffffffffffffffffffffffffffffffffffffff161415610f26576040517f08c379a0000000000000000000000000000000000000000000000000000000008152600401610f1d9061267c565b60405180910390fd5b610f318383836114a1565b610f3c600082610ca9565b6001600360008573ffffffffffffffffffffffffffffffffffffffff1673ffffffffffffffffffffffffffffffffffffffff1681526020019081526020016000206000828254610f8c91906129b2565b925050819055506001600360008473ffffffffffffffffffffffffffffffffffffffff1673ffffffffffffffffffffffffffffffffffffffff1681526020019081526020016000206000828254610fe3919061292b565b92505081905550816002600083815260200190815260200160002060006101000a81548173ffffffffffffffffffffffffffffffffffffffff021916908373ffffffffffffffffffffffffffffffffffffffff160217905550808273ffffffffffffffffffffffffffffffffffffffff168473ffffffffffffffffffffffffffffffffffffffff167fddf252ad1be2c89b69c2b068fc378daa952ba7f163c4a11628f55a4df523b3ef60405160405180910390a4505050565b600081600001549050919050565b6110c48282604051806020016040528060008152506114a6565b5050565b6110d182610c35565b611110576040517f08c379a00000000000000000000000000000000000000000000000000000000081526004016111079061273c565b60405180910390fd5b80600660008481526020019081526020016000209080519060200190611137929190611a26565b505050565b6111d6838383604051602401611154939291906125fe565b6040516020818303038152906040527fe3849f79000000000000000000000000000000000000000000000000000000007bffffffffffffffffffffffffffffffffffffffffffffffffffffffff19166020820180517bffffffffffffffffffffffffffffffffffffffffffffffffffffffff8381831617835250505050611478565b505050565b6001816000016000828254019250508190555050565b8173ffffffffffffffffffffffffffffffffffffffff168373ffffffffffffffffffffffffffffffffffffffff161415611260576040517f08c379a00000000000000000000000000000000000000000000000000000000081526004016112579061269c565b60405180910390fd5b80600560008573ffffffffffffffffffffffffffffffffffffffff1673ffffffffffffffffffffffffffffffffffffffff16815260200190815260200160002060008473ffffffffffffffffffffffffffffffffffffffff1673ffffffffffffffffffffffffffffffffffffffff16815260200190815260200160002060006101000a81548160ff0219169083151502179055508173ffffffffffffffffffffffffffffffffffffffff168373ffffffffffffffffffffffffffffffffffffffff167f17307eab39ab6107e8899845ad3d59bd9653f200f220920489ca2b5937696c318360405161135191906125c1565b60405180910390a3505050565b611369848484610e40565b61137584848484611501565b6113b4576040517f08c379a00000000000000000000000000000000000000000000000000000000081526004016113ab9061263c565b60405180910390fd5b50505050565b606060405180602001604052806000815250905090565b60606113dc82610c35565b61141b576040517f08c379a0000000000000000000000000000000000000000000000000000000008152600401611412906127dc565b60405180910390fd5b60006114256113ba565b905060008151116114455760405180602001604052806000815250611470565b8061144f84611698565b604051602001611460929190612536565b6040516020818303038152906040525b915050919050565b60008151905060006a636f6e736f6c652e6c6f679050602083016000808483855afa5050505050565b505050565b6114b08383611845565b6114bd6000848484611501565b6114fc576040517f08c379a00000000000000000000000000000000000000000000000000000000081526004016114f39061263c565b60405180910390fd5b505050565b60006115228473ffffffffffffffffffffffffffffffffffffffff16611a13565b1561168b578373ffffffffffffffffffffffffffffffffffffffff1663150b7a0261154b610ca1565b8786866040518563ffffffff1660e01b815260040161156d9493929190612575565b602060405180830381600087803b15801561158757600080fd5b505af19250505080156115b857506040513d601f19601f820116820180604052508101906115b59190611dd2565b60015b61163b573d80600081146115e8576040519150601f19603f3d011682016040523d82523d6000602084013e6115ed565b606091505b50600081511415611633576040517f08c379a000000000000000000000000000000000000000000000000000000000815260040161162a9061263c565b60405180910390fd5b805181602001fd5b63150b7a0260e01b7bffffffffffffffffffffffffffffffffffffffffffffffffffffffff1916817bffffffffffffffffffffffffffffffffffffffffffffffffffffffff191614915050611690565b600190505b949350505050565b606060008214156116e0576040518060400160405280600181526020017f30000000000000000000000000000000000000000000000000000000000000008152509050611840565b600082905060005b600082146117125780806116fb90612ace565b915050600a8261170b9190612981565b91506116e8565b60008167ffffffffffffffff811115611754577f4e487b7100000000000000000000000000000000000000000000000000000000600052604160045260246000fd5b6040519080825280601f01601f1916602001820160405280156117865781602001600182028036833780820191505090505b5090505b600085146118395760018261179f91906129b2565b9150600a856117ae9190612b17565b60306117ba919061292b565b60f81b8183815181106117f6577f4e487b7100000000000000000000000000000000000000000000000000000000600052603260045260246000fd5b60200101907effffffffffffffffffffffffffffffffffffffffffffffffffffffffffffff1916908160001a905350600a856118329190612981565b945061178a565b8093505050505b919050565b600073ffffffffffffffffffffffffffffffffffffffff168273ffffffffffffffffffffffffffffffffffffffff1614156118b5576040517f08c379a00000000000000000000000000000000000000000000000000000000081526004016118ac9061275c565b60405180910390fd5b6118be81610c35565b156118fe576040517f08c379a00000000000000000000000000000000000000000000000000000000081526004016118f59061265c565b60405180910390fd5b61190a600083836114a1565b6001600360008473ffffffffffffffffffffffffffffffffffffffff1673ffffffffffffffffffffffffffffffffffffffff168152602001908152602001600020600082825461195a919061292b565b92505081905550816002600083815260200190815260200160002060006101000a81548173ffffffffffffffffffffffffffffffffffffffff021916908373ffffffffffffffffffffffffffffffffffffffff160217905550808273ffffffffffffffffffffffffffffffffffffffff16600073ffffffffffffffffffffffffffffffffffffffff167fddf252ad1be2c89b69c2b068fc378daa952ba7f163c4a11628f55a4df523b3ef60405160405180910390a45050565b600080823b905060008111915050919050565b828054611a3290612a9c565b90600052602060002090601f016020900481019282611a545760008555611a9b565b82601f10611a6d57805160ff1916838001178555611a9b565b82800160010185558215611a9b579182015b82811115611a9a578251825591602001919060010190611a7f565b5b509050611aa89190611aac565b5090565b5b80821115611ac5576000816000905550600101611aad565b5090565b6000611adc611ad784612888565b612857565b905082815260208101848484011115611af457600080fd5b611aff848285612a5a565b509392505050565b6000611b1a611b15846128b8565b612857565b905082815260208101848484011115611b3257600080fd5b611b3d848285612a5a565b509392505050565b600081359050611b5481612c15565b92915050565b600081359050611b6981612c2c565b92915050565b600081359050611b7e81612c43565b92915050565b600081519050611b9381612c43565b92915050565b600082601f830112611baa57600080fd5b8135611bba848260208601611ac9565b91505092915050565b600082601f830112611bd457600080fd5b8135611be4848260208601611b07565b91505092915050565b600081359050611bfc81612c5a565b92915050565b600060208284031215611c1457600080fd5b6000611c2284828501611b45565b91505092915050565b60008060408385031215611c3e57600080fd5b6000611c4c85828601611b45565b9250506020611c5d85828601611b45565b9150509250929050565b600080600060608486031215611c7c57600080fd5b6000611c8a86828701611b45565b9350506020611c9b86828701611b45565b9250506040611cac86828701611bed565b9150509250925092565b60008060008060808587031215611ccc57600080fd5b6000611cda87828801611b45565b9450506020611ceb87828801611b45565b9350506040611cfc87828801611bed565b925050606085013567ffffffffffffffff811115611d1957600080fd5b611d2587828801611b99565b91505092959194509250565b60008060408385031215611d4457600080fd5b6000611d5285828601611b45565b9250506020611d6385828601611b5a565b9150509250929050565b60008060408385031215611d8057600080fd5b6000611d8e85828601611b45565b9250506020611d9f85828601611bed565b9150509250929050565b600060208284031215611dbb57600080fd5b6000611dc984828501611b6f565b91505092915050565b600060208284031215611de457600080fd5b6000611df284828501611b84565b91505092915050565b60008060408385031215611e0e57600080fd5b600083013567ffffffffffffffff811115611e2857600080fd5b611e3485828601611bc3565b9250506020611e4585828601611b45565b9150509250929050565b600060208284031215611e6157600080fd5b6000611e6f84828501611bed565b91505092915050565b611e81816129e6565b82525050565b611e90816129f8565b82525050565b6000611ea1826128e8565b611eab81856128fe565b9350611ebb818560208601612a69565b611ec481612c04565b840191505092915050565b6000611eda826128f3565b611ee4818561290f565b9350611ef4818560208601612a69565b611efd81612c04565b840191505092915050565b6000611f13826128f3565b611f1d8185612920565b9350611f2d818560208601612a69565b80840191505092915050565b6000611f4660328361290f565b91507f4552433732313a207472616e7366657220746f206e6f6e20455243373231526560008301527f63656976657220696d706c656d656e74657200000000000000000000000000006020830152604082019050919050565b6000611fac601c8361290f565b91507f4552433732313a20746f6b656e20616c7265616479206d696e746564000000006000830152602082019050919050565b6000611fec60248361290f565b91507f4552433732313a207472616e7366657220746f20746865207a65726f2061646460008301527f72657373000000000000000000000000000000000000000000000000000000006020830152604082019050919050565b600061205260198361290f565b91507f4552433732313a20617070726f766520746f2063616c6c6572000000000000006000830152602082019050919050565b6000612092602c8361290f565b91507f4552433732313a206f70657261746f7220717565727920666f72206e6f6e657860008301527f697374656e7420746f6b656e00000000000000000000000000000000000000006020830152604082019050919050565b60006120f860388361290f565b91507f4552433732313a20617070726f76652063616c6c6572206973206e6f74206f7760008301527f6e6572206e6f7220617070726f76656420666f7220616c6c00000000000000006020830152604082019050919050565b600061215e602a8361290f565b91507f4552433732313a2062616c616e636520717565727920666f7220746865207a6560008301527f726f2061646472657373000000000000000000000000000000000000000000006020830152604082019050919050565b60006121c460298361290f565b91507f4552433732313a206f776e657220717565727920666f72206e6f6e657869737460008301527f656e7420746f6b656e00000000000000000000000000000000000000000000006020830152604082019050919050565b600061222a602e8361290f565b91507f45524337323155524953746f726167653a2055524920736574206f66206e6f6e60008301527f6578697374656e7420746f6b656e0000000000000000000000000000000000006020830152604082019050919050565b600061229060208361290f565b91507f4552433732313a206d696e7420746f20746865207a65726f20616464726573736000830152602082019050919050565b60006122d060318361290f565b91507f45524337323155524953746f726167653a2055524920717565727920666f722060008301527f6e6f6e6578697374656e7420746f6b656e0000000000000000000000000000006020830152604082019050919050565b6000612336602c8361290f565b91507f4552433732313a20617070726f76656420717565727920666f72206e6f6e657860008301527f697374656e7420746f6b656e00000000000000000000000000000000000000006020830152604082019050919050565b600061239c60298361290f565b91507f4552433732313a207472616e73666572206f6620746f6b656e2074686174206960008301527f73206e6f74206f776e00000000000000000000000000000000000000000000006020830152604082019050919050565b6000612402602f8361290f565b91507f4552433732314d657461646174613a2055524920717565727920666f72206e6f60008301527f6e6578697374656e7420746f6b656e00000000000000000000000000000000006020830152604082019050919050565b600061246860218361290f565b91507f4552433732313a20617070726f76616c20746f2063757272656e74206f776e6560008301527f72000000000000000000000000000000000000000000000000000000000000006020830152604082019050919050565b60006124ce60318361290f565b91507f4552433732313a207472616e736665722063616c6c6572206973206e6f74206f60008301527f776e6572206e6f7220617070726f7665640000000000000000000000000000006020830152604082019050919050565b61253081612a50565b82525050565b60006125428285611f08565b915061254e8284611f08565b91508190509392505050565b600060208201905061256f6000830184611e78565b92915050565b600060808201905061258a6000830187611e78565b6125976020830186611e78565b6125a46040830185612527565b81810360608301526125b68184611e96565b905095945050505050565b60006020820190506125d66000830184611e87565b92915050565b600060208201905081810360008301526125f68184611ecf565b905092915050565b600060608201905081810360008301526126188186611ecf565b90506126276020830185612527565b6126346040830184611e78565b949350505050565b6000602082019050818103600083015261265581611f39565b9050919050565b6000602082019050818103600083015261267581611f9f565b9050919050565b6000602082019050818103600083015261269581611fdf565b9050919050565b600060208201905081810360008301526126b581612045565b9050919050565b600060208201905081810360008301526126d581612085565b9050919050565b600060208201905081810360008301526126f5816120eb565b9050919050565b6000602082019050818103600083015261271581612151565b9050919050565b60006020820190508181036000830152612735816121b7565b9050919050565b600060208201905081810360008301526127558161221d565b9050919050565b6000602082019050818103600083015261277581612283565b9050919050565b60006020820190508181036000830152612795816122c3565b9050919050565b600060208201905081810360008301526127b581612329565b9050919050565b600060208201905081810360008301526127d58161238f565b9050919050565b600060208201905081810360008301526127f5816123f5565b9050919050565b600060208201905081810360008301526128158161245b565b9050919050565b60006020820190508181036000830152612835816124c1565b9050919050565b60006020820190506128516000830184612527565b92915050565b6000604051905081810181811067ffffffffffffffff8211171561287e5761287d612bd5565b5b8060405250919050565b600067ffffffffffffffff8211156128a3576128a2612bd5565b5b601f19601f8301169050602081019050919050565b600067ffffffffffffffff8211156128d3576128d2612bd5565b5b601f19601f8301169050602081019050919050565b600081519050919050565b600081519050919050565b600082825260208201905092915050565b600082825260208201905092915050565b600081905092915050565b600061293682612a50565b915061294183612a50565b9250827fffffffffffffffffffffffffffffffffffffffffffffffffffffffffffffffff0382111561297657612975612b48565b5b828201905092915050565b600061298c82612a50565b915061299783612a50565b9250826129a7576129a6612b77565b5b828204905092915050565b60006129bd82612a50565b91506129c883612a50565b9250828210156129db576129da612b48565b5b828203905092915050565b60006129f182612a30565b9050919050565b60008115159050919050565b60007fffffffff0000000000000000000000000000000000000000000000000000000082169050919050565b600073ffffffffffffffffffffffffffffffffffffffff82169050919050565b6000819050919050565b82818337600083830152505050565b60005b83811015612a87578082015181840152602081019050612a6c565b83811115612a96576000848401525b50505050565b60006002820490506001821680612ab457607f821691505b60208210811415612ac857612ac7612ba6565b5b50919050565b6000612ad982612a50565b91507fffffffffffffffffffffffffffffffffffffffffffffffffffffffffffffffff821415612b0c57612b0b612b48565b5b600182019050919050565b6000612b2282612a50565b9150612b2d83612a50565b925082612b3d57612b3c612b77565b5b828206905092915050565b7f4e487b7100000000000000000000000000000000000000000000000000000000600052601160045260246000fd5b7f4e487b7100000000000000000000000000000000000000000000000000000000600052601260045260246000fd5b7f4e487b7100000000000000000000000000000000000000000000000000000000600052602260045260246000fd5b7f4e487b7100000000000000000000000000000000000000000000000000000000600052604160045260246000fd5b6000601f19601f8301169050919050565b612c1e816129e6565b8114612c2957600080fd5b50565b612c35816129f8565b8114612c4057600080fd5b50565b612c4c81612a04565b8114612c5757600080fd5b50565b612c6381612a50565b8114612c6e57600080fd5b5056fe416e204e465420772f20494420257320686173206265656e206d696e74656420746f202573a2646970667358221220d735ab42802301e7ead63a9e08da64ae7e248008194df42ee0b4d3413dba745064736f6c6343000800003354686973206973206d79204368726973746d6173204e465420636f6e7472616374203a2920656e6a6f7921",
    "linkReferences": {},
    "deployedLinkReferences": {}
}